:020000040000FA
:04000000FEEFFFF020
:020000040001F9
:10FED60012001200120001EE01F1110EEE6AE806A0
:10FEE600FDE1000198EFFFF0000EC66E000E040162
:10FEF600006F800EBE6E000E086F300EC76E000ECD
:10FF0600CF6E000EBF6E1200000E0D6E000E0E6E4E
:10FF1600000E0F6E000E106E000E096E000E0A6EB9
:10FF2600000E0B6E000E0C6E1200088E6BECFFF0CE
:10FF360087ECFFF077ECFFF06DECFFF0A9ECFFF03B
:10FF46006CECFFF0A1EFFFF0FEEFFFF0F0EFFFF03B
:10FF5600300ECF18D8A4B2EFFFF0B4EFFFF0E2EF07
:10FF6600FFF0000E126E000E136E000E146E000EE1
:10FF7600156EC4EFFFF0010E1226000E1322142296
:10FF86001522155014100BE1500E125CC30E1358B7
:10FF9600D8A0D0EFFFF0D2EFFFF0BEEFFFF0100ECB
:10FFA600CF18D8A4D9EFFFF0DBEFFFF0E2EFFFF0B8
:10FFB600BE2A010E0126000E022203220422400E52
:10FFC6000118021003100410D8A4ECEFFFF0EEEFB6
:10FFD600FFF0F0EFFFF0800EBE6E0450031002102B
:10FFE60009E1400E015CD8A0FBEFFFF0FDEFFFF04A
:0AFFF600ABEFFFF012006EEFFFF01A
:020000040020DA
:10000000FF0FFF0FFF0FFF0FFF0FFF0FFF0FFF0F80
:10001000FF0FFF0FFF0FFF0FFF0FFF0FFF0FFF0F70
:020000040030CA
:0A0000008CFEFFFC9FFFFFFFFFFFD7
:00000001FF
