:020000040000FA
:04000000FEEFFFF020
:020000040001F9
:10FF3400120012001200000EC66E000E0401006FC3
:10FF4400800EBE6E120001EE01F10D0EEE6AE8069F
:10FF5400FDE10001BFEFFFF0000E096E000E0A6E16
:10FF6400000E0B6E000E0C6E000E056E000E066E7B
:10FF7400000E076E000E086E1200048E9AECFFF05D
:10FF8400AEECFFF09DECFFF09CECFFF0D0ECFFF04A
:10FF94009BECFFF0C8EFFFF0FEEFFFF0000E126ED7
:10FFA400000E0E6E000E0F6E000E106E000E116E1F
:10FFB400010E0E26000E0F221022112211500DE107
:10FFC400400E0E5C0D0E0F58030E1058D8A0EDEF26
:10FFD400FFF0EFEFFFF0DAEFFFF0800EBE6EBE50E1
:10FFE4001210BE6E122A400E1264FBEFFFF0FDEFFA
:0CFFF400FFF0D2EFFFF01200A5EFFFF0CD
:020000040020DA
:10000000FF0FFF0FFF0FFF0FFF0FFF0FFF0FFF0F80
:10001000FF0FFF0FFF0FFF0FFF0FFF0FFF0FFF0F70
:020000040030CA
:0A0000008CFEFFFC9FFFFFFFFFFFD7
:00000001FF
